S02700002E2E2F6275696C642D44656275672F4C616254687265652F4C616254687265652E733139B2
S315200000000248854600F08AF8FEE7C04600C0012077
S3152000001080B500AF0C4B19780C4B1A6801230B40A6
S31520000020D9B2137D0120084001218B43191C031CE2
S315200000300B431375044B1B7801225340DAB2024B53
S315200000401A70C046BD4680BD4C02002050020020DA
S3152000005080B500AF0B4B1A68137803218B43191C0C
S3152000006001230B431370074B1A68137901218B4325
S315200000701371044B1A68137A03218B431372C046FB
S31520000080BD4680BD5002002090B583B000AF786099
S31520000090144B1B681A7804210A431A70124B134A10
S315200000A01A60104B1B681A7802210A431A707A6864
S315200000B013005B019B1A9B009B18DB001A00094B5F
S315200000C01C680C21100000F035F803006360054B16
S315200000D01B681A7801210A431A70C046BD4603B030
S315200000E090BDC046540200203CC0012011000020D3
S315200000F080B500AF074B1A68137D01218B4313751A
S31520000100054B1B681A7801218A431A70C046BD46E2
S3152000011080BDC046500200205402002080B500AFAA
S31520000120FFF796FF024B1800FFF7AEFFFEE7C0462B
S31520000130B8820100002243088B4274D303098B4204
S315200001405FD3030A8B4244D3030B8B4228D3030C81
S315200001508B420DD3FF22090212BA030C8B4202D323
S315200001601212090265D0030B8B4219D300E0090A4B
S31520000170C30B8B4201D3CB03C01A5241830B8B4254
S3152000018001D38B03C01A5241430B8B4201D34B033D
S31520000190C01A5241030B8B4201D30B03C01A5241A2
S315200001A0C30A8B4201D3CB02C01A5241830A8B4227
S315200001B001D38B02C01A5241430A8B4201D34B0210
S315200001C0C01A5241030A8B4201D30B02C01A524174
S315200001D0CDD2C3098B4201D3CB01C01A5241830928
S315200001E08B4201D38B01C01A524143098B4201D362
S315200001F04B01C01A524103098B4201D30B01C01A8D
S315200002005241C3088B4201D3CB00C01A5241830806
S315200002108B4201D38B00C01A524143088B4201D333
S315200002204B00C01A5241411A00D201465241104693
S315200002307047FFE701B5002000F006F802BDC04672
S315200002400029F7D076E770477047C04600000000C7
S30D200002500010024010E000E05E
S70520000000DA
