S02B00002E2E2F6275696C642D52656C656173652F325F322D4B6579626F6172642F322E322D4B6579626F61B2
S315200000000248854600F0D2F8FEE7000000C0012035
S315200000105522064B1B689A73054A99881A60F02266
S3152000002012011140034A0A439A8070475002002069
S315200000305500005500F0FFFF00280AD101220A4092
S315200000401021164B12011868437D8B4313434375C9
S31520000050704701280CD0022814D00328F8D10F4B62
S31520000060C9011A687F23507D03400B435375EFE780
S315200000700A4B01401A681F30537D490183430B43C5
S315200000805375E5E701220A404021044B9201186886
S31520000090437D8B4313434375DAE7C0465002002065
S315200000A0012210000A4B1B685B7C18401A420BD0B9
S315200000B09A0709D55A0708D50820184043425841BF
S315200000C0FB2340429843FF3070470220FCE7C0469E
S315200000D050020020F0B54E46DE46574645461020D3
S315200000E0E0B52B490A68537D567C83435375F30745
S315200000F00BD4002300229B00C91889180879F0BC6C
S31520000100BB46B246A946A046F0BD08253540AB46BB
S315200001106025A8462025AC463F250424AA4640252E
S315200001200E38304034400023A946302710260028B8
S315200001300DD0002C2AD05D46002D1DD0002B08D1D5
S31520000140537DBB433343537501230028F1D101224C
S31520000150D1E7012B08D0022B10D08023517D5B42A2
S315200001600B43FF205375CAE74546537DAB4365468F
S315200001702B4353750223DAE70322BCE75546537D0A
S315200001802B404D462B4353750323D0E70222B2E77B
S3152000019050020020044B002219680F2801D81B1892
S315200001A01A7D0A757047C04650020020F8B5DE4613
S315200001B057464E464546E0B5FFF72AFF012702215E
S315200001C004250826214B1A68537C1F4019401D40E0
S315200001D01E4060239946202398463F23BB469A46D5
S315200001E01020537D834353755B46002BF8D0402067
S315200001F000238446302410200029F1D0002DEFD092
S31520000200002EEDD0002B07D1537DA3430343537516
S3152000021001230029F2D1E3E7012B07D0022B0DD0D1
S315200002208023507D5B4203435375D9E74F46537D68
S31520000230BB4347463B4353750223DDE75746537D71
S315200002403B4067463B4353750323D5E750020020C6
S31520000250000C02400102030A0405060B0708090CDC
S315200002600E000F0D3F065B4F666D7D077F6F777C17
S30920000270395E7971E3
S70520000000DA
