S02100002E2E2F6275696C642D44656275672F64656C61792F64656C61792E733139A8
S315200000000248854600F085F8FEE7C04600C001207C
S3152000001080B582B000AF0200FB1D1A70034AFB1D9B
S315200000201B781370C046BD4602B080BD1410024036
S3152000003080B500AF044B55221A70044B1B68002272
S315200000401A60C046BD4680BD001002405402002002
S3152000005080B500AF114B1B6800221A600F4B1B683E
S315200000602A225A600D4B1B681A7804210A431A70FB
S315200000700A4B1B681A7801210A431A70C046074B9F
S315200000801B681B68DB03DB0FDBB2002BF7D0034BAF
S315200000901B6800221A60C046BD4680BD540200205F
S315200000A080B584B000AF78600023FB6004E0FFF7E2
S315200000B0CFFFFB680133FB607B689A00FB689A429E
S315200000C0F5D8C046C046BD4604B080BD80B584B0D4
S315200000D000AF78607B68FA229100180000F02EF8B5
S315200000E003007B607B6801337B600023FB6007E0B5
S315200000F0FA239B001800FFF7D3FFFB680133FB6050
S31520000100FB687A689A42F3D8C046C046BD4604B01A
S3152000011080BD80B500AFFFF78BFF0020FFF778FF8B
S31520000120FA235B001800FFF7D1FFFF20FFF770FFCF
S31520000130FA235B001800FFF7C9FFEEE70022430809
S315200001408B4274D303098B425FD3030A8B4244D379
S31520000150030B8B4228D3030C8B420DD3FF220902BB
S3152000016012BA030C8B4202D31212090265D0030B7A
S315200001708B4219D300E0090AC30B8B4201D3CB0370
S31520000180C01A5241830B8B4201D38B03C01A5241B2
S31520000190430B8B4201D34B03C01A5241030B8B42B4
S315200001A001D30B03C01A5241C30A8B4201D3CB029F
S315200001B0C01A5241830A8B4201D38B02C01A524184
S315200001C0430A8B4201D34B02C01A5241030A8B4287
S315200001D001D30B02C01A5241CDD2C3098B4201D39F
S315200001E0CB01C01A524183098B4201D38B01C01A1D
S315200001F0524143098B4201D34B01C01A5241030994
S315200002008B4201D30B01C01A5241C3088B4201D342
S31520000210CB00C01A524183088B4201D38B00C01AEF
S31520000220524143088B4201D34B00C01A5241411A16
S3152000023000D20146524110467047FFE701B5002023
S3152000024000F006F802BDC0460029F7D076E77047D1
S30D200002507047C04610E000E0F3
S70520000000DA
