S02B00002E2E2F6275696C642D44656275672F6173636969646973706C61792F6173636969646973706C6179C9
S315200000000248854600F0DBFAFEE7C04600C0012024
S3152000001080B582B000AF0200FB1D1A70FB1D1B7855
S31520000020002B01D0044A00E05522044B1B681A60BD
S31520000030C046BD4602B080BD555500005C07002075
S3152000004090B583B000AF7860144B1B6800221A600D
S31520000050124B1C687B680621180000F0F3FA030097
S3152000006063600E4B1B681A7804210A431A700B4BE7
S315200000701B681A7801210A431A70C046074B1B6871
S315200000801B68DB03DB0FDBB2002BF7D0034B1B68AF
S3152000009000221A60C046BD4603B090BD600700200E
S315200000A080B500AF114B1B6800221A600F4B1B68EE
S315200000B02A225A600D4B1B681A7804210A431A70AB
S315200000C00A4B1B681A7801210A431A70C046074B4F
S315200000D01B681B68DB03DB0FDBB2002BF7D0034B5F
S315200000E01B6800221A60C046BD4680BD60070020FE
S315200000F080B584B000AF78600023FB6004E0FFF792
S31520000100CFFFFB680133FB607B689A00FB689A424D
S31520000110F5D8C046C046BD4604B080BD80B584B083
S3152000012000AF78607B68FA229100180000F08AFA06
S3152000013003007B607B6801337B600023FB6007E064
S31520000140FA239B001800FFF7D3FFFB680133FB60FF
S31520000150FB687A689A42F3D8C046C046BD4604B0CA
S3152000016080BD90B583B000AF040008001100FB1DD0
S31520000170221C1A70BB1D021C1A707B1D0A1C1A70C9
S31520000180FB1D1B78002B05D00E4B1B681A7D012109
S315200001900A431A75BB1D1B78002B05D0094B1B681B
S315200001A01A7D02210A431A757B1D1B78002B05D068
S315200001B0044B1B681A7D40210A431A75C046BD466A
S315200001C003B090BD5C07002090B583B000AF04005B
S315200001D008001100FB1D221C1A70BB1D021C1A7080
S315200001E07B1D0A1C1A70FB1D1B78002B05D10F4B9B
S315200001F01B681A7D01218A431A75BB1D1B78002BAB
S3152000020005D10A4B1B681A7D02218A431A757B1D6C
S315200002101B78002B05D1054B1B681A7D40218A438C
S315200002201A75C046BD4603B090BDC0465C07002087
S3152000023080B582B000AF0200FB1D1A702820FFF7A0
S31520000240FFFE0D4B1B681A7D40210A431A750A4B87
S315200002501B68FA1D12785A75FFF722FF064B1B689A
S315200002601A7D40218A431A750A20FFF7E9FEC04607
S31520000270BD4602B080BDC0465C07002080B582B076
S3152000028000AF0E4B1B681A7D40210A431A75B42312
S315200002905B001800FFF7D4FE084B1A68FB1D527C42
S315200002A01A70064B1B681A7D40218A431A75FB1D5E
S315200002B01B781800BD4602B080BDC0465C070020F2
S315200002C080B582B000AF0200FB1D1A700A4B1B6876
S315200002D01A7D01218A431A75074B1B681A7D022154
S315200002E08A431A75FB1D1B781800FFF7A1FFC0462D
S315200002F0BD4602B080BDC0465C07002080B582B0F6
S3152000030000AF0200FB1D1A700A4B1B681A7D0121E3
S315200003100A431A75074B1B681A7D02218A431A75F0
S31520000320FB1D1B781800FFF783FFC046BD4602B0B1
S3152000033080BDC0465C07002090B583B000AF00208A
S31520000340FFF766FE0C4B1B681A7D01218A431A753E
S31520000350094B1B681A7D02210A431A75FC1DFFF7FB
S315200003608DFF030023700120FFF752FEFB1D1B7833
S315200003701800BD4603B090BD5C07002090B583B041
S3152000038000AF0020FFF744FE0C4B1B681A7D0121AD
S315200003900A431A75094B1B681A7D02210A431A75EE
S315200003A0FC1DFFF76BFF030023700120FFF730FED3
S315200003B0FB1D1B781800BD4603B090BD5C070020CE
S315200003C080B500AFC046FFF7B7FF03005BB2002B36
S315200003D0F9DB0820FFF78CFEC046BD4680BD80B500
S315200003E000AFFFF7EDFF0120FFF76AFF0220FFF7BE
S315200003F095FEC046BD4680BD80B584B000AF78600E
S315200004003960FFF7DDFF0F217B1830221A707B68D9
S31520000410002B05D07B187A18127808210A431A7007
S315200004203B68002B06D00F22BB18BA18127804217D
S315200004300A431A700F23FB181B781800FFF740FF9A
S315200004402720FFF755FEC046BD4604B080BD80B5C7
S3152000045086B000AFF860B9607A60FFF7B1FF172168
S315200004607B1808221A70FB68002B05D07B187A1897
S31520000470127804210A431A70BB68002B06D0172273
S31520000480BB18BA18127802210A431A707B68002B0F
S3152000049006D01722BB18BA18127801210A431A70FF
S315200004A02720FFF725FEC046BD4606B080BD80B595
S315200004B084B000AF78603960FFF782FF0F217B1888
S315200004C004221A707B68002B05D07B187A181278C4
S315200004D002210A431A703B68002B06D00F22BB1854
S315200004E0BA18127801210A431A700F23FB181B78B9
S315200004F01800FFF7E5FE2720FFF7FAFDC046BD46A8
S3152000050004B080BD80B584B000AF78603960FFF755
S3152000051057FF0F217B1880221A707B68013B7B6076
S315200005203B68013B3B603B68DBB29B01DAB27B68F0
S31520000530DBB2D318DBB25AB27B181B785BB21343FB
S315200005405AB27B181A707B181B781800FFF7B8FE72
S315200005502720FFF7CDFDC046BD4604B080BD80B53F
S3152000056000AF00210120FFF747FF012201210120D2
S31520000570FFF76DFFFFF733FF00210120FFF797FFFD
S31520000580C046BD4680BD80B582B000AF0200FB1DCF
S315200005901A70FFF715FFFB1D1B781800FFF7AEFE3C
S315200005A02B20FFF7A5FDC046BD4602B080BD80B515
S315200005B000AF0120FFF72CFDC046BD4680BDB0B57B
S315200005C08AB000AF14257B191C4A13CA13C312889C
S315200005D01A803B1D1A4A13CA13C3118819809278B0
S315200005E09A70FFF7E4FFFFF7BAFF01210120FFF71A
S315200005F089FF7B197B6206E07B6A5A1C7A621B782C
S315200006001800FFF7C0FF7B6A1B78002BF4D102216C
S315200006100120FFF777FF3B1D7B6206E07B6A5A1CB1
S315200006207A621B781800FFF7AEFF7B6A1B78002BD7
S31520000630F4D100231800BD460AB0B0BD64070020DF
S3152000064074070020002243088B4274D303098B428F
S315200006505FD3030A8B4244D3030B8B4228D3030C6C
S315200006608B420DD3FF22090212BA030C8B4202D30E
S315200006701212090265D0030B8B4219D300E0090A36
S31520000680C30B8B4201D3CB03C01A5241830B8B423F
S3152000069001D38B03C01A5241430B8B4201D34B0328
S315200006A0C01A5241030B8B4201D30B03C01A52418D
S315200006B0C30A8B4201D3CB02C01A5241830A8B4212
S315200006C001D38B02C01A5241430A8B4201D34B02FB
S315200006D0C01A5241030A8B4201D30B02C01A52415F
S315200006E0CDD2C3098B4201D3CB01C01A5241830913
S315200006F08B4201D38B01C01A524143098B4201D34D
S315200007004B01C01A524103098B4201D30B01C01A77
S315200007105241C3088B4201D3CB00C01A52418308F1
S315200007208B4201D38B00C01A524143088B4201D31E
S315200007304B00C01A5241411A00D20146524110467E
S315200007407047FFE701B5002000F006F802BDC0465D
S315200007500029F7D076E770477047C0460010024060
S3152000076010E000E0416C66616E756D657269736BB1
S3152000077020000000446973706C6179202D20746517
S309200007807374000068
S70520000000DA
