S02B00002E2E2F6275696C642D44656275672F666C6970666C69705F6972712F666C6970666C69705F697271C5
S315200000000248854600F05EF8FEE7C04600C00120A3
S3152000001080B500AF074B1B8801339AB2054B1A8077
S31520000020054B1A68044B08210A431A60C046BD4690
S3152000003080BDC046E0000020143C014080B500AFE2
S31520000040164B174A1A60174B1B88164A1B051B0DA1
S315200000509BB21380134B1B8812498022D201134373
S315200000609BB20B80104B1A680F4B08210A431A606B
S315200000700E4B1A680D4B08210A431A600C4B0D4A89
S315200000801A600D4B1A680C4B802189000A431A60AE
S315200000900A4B0B4A1A60C046BD4680BD000C024082
S315200000A05555000008380140003C0140083C0140FD
S315200000B008ED00E000C0012000E100E064C001205E
S315200000C01100002080B500AFFFF7B8FF024B1A8859
S315200000D0024B1A60FAE7C046E0000020140C0240EA
S309200000E000000000F6
S70520000000DA
