S02B00002E2E2F6275696C642D44656275672F6B65797061642F6B65797061645F73696D756C61746F722E73EB
S315200000000248854600F042F9FEE7C04600C00120BE
S3152000001080B500AF2F4B1B682F4A1A802D4B1B68CB
S3152000002000221A712B4B1B689A7803218A439A70F7
S31520000030284B1B689A780C218A439A70254B1B689B
S315200000409A7830218A439A70224B1B689A783F21EE
S315200000500A409A701F4B1B68DA7803218A43111CC9
S3152000006001220A43DA701B4B1B68DA780C218A437B
S31520000070111C04220A43DA70164B1B68DA783021E9
S315200000808A43111C10220A43DA70124B1B68DA7855
S315200000903F210A40111C40220A43DA700D4B1B688F
S315200000A05A7910218A435A710A4B1B685A792021A2
S315200000B08A435A71074B1B685A7940218A435A71E1
S315200000C0044B1B685A797F210A405A71C046BD46A7
S315200000D080BDC046A40200205555000080B582B0E0
S315200000E000AF786039607B68002B11D1284B1B68E4
S315200000F03A68111C01220A40D2B201210A4010019D
S315200001005A7D10218A43111C021C0A435A753BE072
S315200001107B68012B11D11E4B1B683A68111C0122EA
S315200001200A40D2B201210A4050015A7D20218A4339
S31520000130111C021C0A435A7526E07B68022B11D13A
S31520000140134B1B683A68111C01220A40D2B20121C6
S315200001500A4090015A7D40218A43111C021C0A4301
S315200001605A7511E07B68032B0ED1094B1B683A6840
S31520000170111C01220A40D2B2D0015A7D7F210A40A9
S31520000180111C021C0A435A75C046BD4602B080BDEA
S31520000190A402002080B500AF154B1B685B7C0122B2
S315200001A01340DBB2002B01D000231EE0104B1B684E
S315200001B05B7C02221340DBB2002B01D0012314E02A
S315200001C00B4B1B685B7C04221340DBB2002B01D057
S315200001D002230AE0064B1B685B7C08221340DBB235
S315200001E0002B01D0032300E0FF231800BD4680BD6D
S315200001F0A402002090B583B000AF00237B601DE0F1
S315200002007B6801211800FFF769FFFC1CFFF7C2FF7E
S31520000210030023707B6800211800FFF75FFFFB1C9B
S315200002201B78FF2B07D0FB1C1B7808497A689200A5
S315200002308A18D35C06E07B6801337B607B68032BDE
S31520000240DEDDFF231800BD4603B090BDA8020020C6
S3152000025080B582B000AF0200FB1D1A70FB1D1B7813
S315200002600F2B04D9074B1B6800221A7506E0FB1DCD
S315200002701A78044B1B6804498A5C1A75C046BD4629
S3152000028002B080BDA4020020B802002080B500AFD5
S31520000290FFF7BEFEFFF7AEFF03001800FFF7D8FFFB
S315200002A0F8E7C046000C02400102030A0405060BCB
S315200002B00708090C0E000F0D3F065B4F666D7D0784
S30D200002C07F6F777C395E7971AE
S70520000000DA
