S02B00002E2E2F6275696C642D44656275672F7379737469636B5F6972712F7379737469636B5F6972712E73BC
S315200000000248854600F06AF8FEE7C04600C0012097
S3152000001080B500AF0A4B00221A600A4B1B681A787B
S3152000002002210A431A70074B1B68A6225A60054B09
S315200000301B681A7801210A431A70C046BD4680BD46
S315200000402C0100203801002080B500AF0B4B1B6827
S315200000501A7801218A431A70094B1B685A1E084BCD
S315200000601A60074B1B68002B02D0FFF7D1FF02E076
S31520000070044B01221A60C046BD4680BD38010020CF
S31520000080280100202C01002080B582B000AF7860C6
S31520000090044B7A681A60FFF7BBFFC046BD4602B024
S315200000A080BDC0462801002080B500AF064B1B68E6
S315200000B0064A1A80064B074A1A60074B00221A6026
S315200000C0C046BD4680BDC0463401002055550000BF
S315200000D03CC00120490000202C01002080B500AF43
S315200000E0FFF7E2FF0D4B1B6800221A750C4B1B68AD
S315200000F01800FFF7C9FF094B1B68FF221A75094B29
S315200001001B68002B00D1FAE7C046044B1B6800226F
S315200001101A7500231800BD4680BDC0463401002054
S31520000120300100202C01002000000000000000000B
S3112000013064000000000C024010E000E01B
S70520000000DA
