S02B00002E2E2F6275696C642D44656275672F7379737469636B5F6972712F7379737469636B5F6972712E73BC
S315200000000248854600F06AF8FEE7C04600C0012097
S3152000001080B500AF0A4B00221A600A4B1B681A787B
S3152000002002210A431A70074B1B68A6225A60054B09
S315200000301B681A7801210A431A70C046BD4680BD46
S31520000040340100204001002080B500AF0B4B1B6817
S315200000501A7801218A431A70094B1B685A1E084BCD
S315200000601A60074B1B68002B02D0FFF7D1FF02E076
S31520000070044B01221A60C046BD4680BD40010020C7
S31520000080300100203401002080B582B000AF7860B6
S31520000090044B7A681A60FFF7BBFFC046BD4602B024
S315200000A080BDC0463001002080B500AF064B1B68DE
S315200000B0064A1A80064B074A1A60074B00221A6026
S315200000C0C046BD4680BDC0463C01002055550000B7
S315200000D03CC00120490000203401002080B500AF3B
S315200000E0FFF7E2FF0F4B1B681800FFF7CDFF0E4B03
S315200000F01B681A7D0C4B1B68D243D2B21A750B4B68
S315200001001B68002B00D1FAE7C046064B1B68143348
S315200001101A00044B1A60FFF7E1FF00231800BD46C2
S3152000012080BDC046380100203C010020340100205B
S31520000130000000000000000064000000000C0240E7
S3092000014010E000E0C5
S70520000000DA
