S02B00002E2E2F6275696C642D44656275672F4C616254687265655461736B54776F2F4C616254687265655498
S315200000000248854600F002FAFEE7C04600C00120FD
S3152000001080B582B000AF786039607B68002B11D143
S31520000020284B1A683B68191C01230B40D9B2537D13
S3152000003001200140080110218B43191C031C0B438E
S3152000004053753BE07B68012B11D11E4B1A683B6828
S31520000050191C01230B40D9B2537D012001404801D0
S3152000006020218B43191C031C0B43537526E07B6808
S31520000070022B11D1134B1A683B68191C01230B4024
S31520000080D9B2537D01200140880140218B43191CA0
S31520000090031C0B43537511E07B68032B0ED1094BD0
S315200000A01A683B68191C01230B40D9B2537DC8013D
S315200000B07F210B40191C031C0B435375C046BD46BC
S315200000C002B080BD7C05002080B500AF154B1B68B3
S315200000D05B7CDB07DB0FDBB2012B01D100231EE0AB
S315200000E0104B1B685B7C9B07DB0FDBB2012B01D11E
S315200000F0012314E00B4B1B685B7C5B07DB0FDBB239
S31520000100012B01D102230AE0064B1B685B7C1B07EF
S31520000110DB0FDBB2012B01D1032300E0FF23180004
S31520000120BD4680BD7C05002090B583B000AF00237E
S315200001307B601DE07B6801211800FFF769FFFC1C2E
S31520000140FFF7C2FF030023707B6800211800FFF72A
S315200001505FFFFB1C1B78FF2B07D0FB1C1B78084975
S315200001607A6892008A18D35C06E07B6801337B604C
S315200001707B68032BDEDDFF231800BD4603B090BD50
S315200001808805002080B500AF134B1B6800221A603B
S31520000190124B1B6800225A75FFF7C6FF03001A0090
S315200001A00F4B1A700D4B1B68F0225A750A4B1B68B1
S315200001B05A69094B1B68F02109010A435A61064B0B
S315200001C01B681A68044B1B68F02109010A431A6050
S315200001D0C046BD4680BDC046840500207C05002063
S315200001E09805002080B500AF3E4B1A68937803210E
S315200001F08B4393703B4B1A6893780C218B439370F7
S31520000200384B1A68937830218B439370354B1A6894
S3152000021093783F210B409370324B1A68D378032191
S315200002208B43191C01230B43D3702E4B1A68D378AA
S315200002300C218B43191C04230B43D370294B1A68BA
S31520000240D37830218B43191C10230B43D370254BB5
S315200002501A68D3783F210B40191C40230B43D370D7
S31520000260204B1A68537910218B4353711D4B1A6802
S31520000270537920218B4353711A4B1A6853794021A5
S315200002808B435371174B1A6853797F210B40537157
S31520000290144B1B68F0225A75134B144A1A80144BC0
S315200002A01B681A68124B1B68F02109010A431A6061
S315200002B00F4B1B689A680E4B1B68F02109010A43F5
S315200002C09A600C4B0C4A1A600C4B0B4A1A600C4B6A
S315200002D0802212041A600B4B802252001A60C046FC
S315200002E0BD4680BD7C0500201038014044440000F6
S315200002F0840500209CC0012085010020E0C001204B
S3152000030000E100E004E100E080B500AF0B4B1B6884
S315200003101B7DDB07DB0FD9B2084B1A6801234B4044
S31520000320D9B2137D0120084001218B43191C031CDF
S315200003300B431375C046BD4680BDC0467C050020D4
S3152000034080B500AF0B4B1A68137803218B43191C19
S3152000035001230B431370074B1A68137901218B4332
S315200003601371044B1A68137A03218B431372C04608
S31520000370BD4680BD7C05002090B583B000AF786077
S31520000380144B1B681A7804210A431A70124B134A1D
S315200003901A60104B1B681A7802210A431A707A6871
S315200003A013005B019B1A9B009B18DB001A00094B6C
S315200003B01C680C21100000F055F803006360054B03
S315200003C01B681A7801210A431A70C046BD4603B03D
S315200003D090BDC046800500203CC0012009030020B6
S315200003E080B500AF074B1A68137D01218B43137527
S315200003F0054B1B681A7801218A431A70C046BD46F0
S3152000040080BDC0467C0500208005002080B500AF59
S31520000410FFF796FFFFF7E6FEFA239B001800FFF78B
S31520000420ABFFC0460E4B1B78DBB2002BFAD1FFF791
S31520000430D7FFC0460A4B1B78DBB2052BFAD1FA232D
S31520000440DB001800FFF798FFC046054B1B78DBB290
S315200004500A2BFAD1FFF7C4FFC046BD4680BDC04671
S3152000046098050020002243088B4274D303098B424F
S315200004705FD3030A8B4244D3030B8B4228D3030C4E
S315200004808B420DD3FF22090212BA030C8B4202D3F0
S315200004901212090265D0030B8B4219D300E0090A18
S315200004A0C30B8B4201D3CB03C01A5241830B8B4221
S315200004B001D38B03C01A5241430B8B4201D34B030A
S315200004C0C01A5241030B8B4201D30B03C01A52416F
S315200004D0C30A8B4201D3CB02C01A5241830A8B42F4
S315200004E001D38B02C01A5241430A8B4201D34B02DD
S315200004F0C01A5241030A8B4201D30B02C01A524141
S31520000500CDD2C3098B4201D3CB01C01A52418309F4
S315200005108B4201D38B01C01A524143098B4201D32E
S315200005204B01C01A524103098B4201D30B01C01A59
S315200005305241C3088B4201D3CB00C01A52418308D3
S315200005408B4201D38B00C01A524143088B4201D300
S315200005504B00C01A5241411A00D201465241104660
S315200005607047FFE701B5002000F006F802BDC0463F
S315200005700029F7D076E770477047C0460010024042
S3152000058010E000E0003C01400102030A0405060BCE
S311200005900708090C0E000F0DFF000000EC
S70520000000DA
