S02B00002E2E2F6275696C642D44656275672F325F322D4B6579626F6172642F322E322D4B6579626F617264B6
S315200000000248854600F064F9FEE7C04600C001209C
S3152000001080B500AF414B1B6855221A803F4B1B68A9
S3152000002000221A713D4B1B689A7803218A439A70E5
S315200000303A4B1B689A780C218A439A70374B1B6877
S315200000409A7830218A439A70344B1B689A783F21DC
S315200000500A409A70314B1B689A7B03218A43111CF4
S3152000006001220A439A732D4B1B689A7B0C218A43E3
S31520000070111C04220A439A73284B1B689A7B302151
S315200000808A43111C10220A439A73244B1B689A7BBD
S315200000903F210A40111C40220A439A731F4B1B68BA
S315200000A0DA7803218A43111C01220A43DA701B4B9A
S315200000B01B68DA780C218A43111C04220A43DA7061
S315200000C0164B1B68DA7830218A43111C10220A430A
S315200000D0DA70124B1B68DA783F210A40111C402245
S315200000E00A43DA700D4B1B685A7910210A435A715C
S315200000F00A4B1B685A7920210A435A71074B1B6801
S315200001005A7940210A435A71044B1B685A79802137
S3152000011049420A435A71C046BD4680BDE8020020C6
S3152000012080B582B000AF786039607B68002B11D132
S31520000130284B1B683A68111C01220A40D2B20121C1
S315200001400A4010015A7D10218A43111C021C0A43C1
S315200001505A753BE07B68012B11D11E4B1B683A6810
S31520000160111C01220A40D2B201210A4050015A7DB7
S3152000017020218A43111C021C0A435A7526E07B68FB
S31520000180022B11D1134B1B683A68111C01220A401D
S31520000190D2B201210A4090015A7D40218A43111C86
S315200001A0021C0A435A7511E07B68032B0ED1094BBA
S315200001B01B683A68111C01220A40D2B2D0015A7D2E
S315200001C07F210A40111C021C0A435A75C046BD46AF
S315200001D002B080BDE802002080B500AF154B1B6839
S315200001E05B7C01221340DBB2002B01D100231EE0F1
S315200001F0104B1B685B7C02221340DBB2002B01D123
S31520000200012314E00B4B1B685B7C04221340DBB2FA
S31520000210002B01D102230AE0064B1B685B7C0822D7
S315200002201340DBB2002B01D1032300E0FF2318008B
S31520000230BD4680BDE802002090B583B000AF002304
S315200002407B601DE07B6800211800FFF769FFFC1C1E
S31520000250FFF7C2FF03002370FB1C1B78FF2B07D080
S31520000260FB1C1B780A497A6892008A18D35C0BE03B
S315200002707B6801211800FFF753FF7B6801337B6001
S315200002807B68032BDEDDFF231800BD4603B090BD3F
S31520000290EC02002080B582B000AF0200FB1D1A7070
S315200002A0FB1D1B780F2B04D9074B1B6800221A75E0
S315200002B006E0FB1D1A78044B1B6804498A5C1A75F4
S315200002C0C046BD4602B080BDE8020020FC020020E8
S315200002D080B500AFFFF79CFEFFF7AEFF03001800C6
S315200002E0FFF7D8FFF8E7C046000C02400102030AD8
S315200002F00405060B0708090C0E000F0D3F065B4F81
S31120000300666D7D077F6F777C395E797112
S70520000000DA
